:100000000C942A000C9447000C9447000C94470071
:100010000C9447000C9447000C9447000C94470044
:100020000C9447000C9447000C9447000C94470034
:100030000C9447000C9447000C9449000C94470022
:100040000C9447000C9447000C9447000C94470014
:100050000C94470011241FBECFE5D8E0DEBFCDBF12
:1000600010E0A0E6B0E0E0E0F1E002C005900D9203
:10007000A436B107D9F720E0A4E6B0E001C01D9294
:10008000A636B207E1F70E9476000C947E000C942D
:1000900000001F920F920FB60F9211248F939F931F
:1000A000EF93FF93809164009091650085309105F6
:1000B00078F4FC01E05AFF4F80818CB98091640094
:1000C000909165000196909365008093640005C04F
:1000D0001AB81092650010926400FF91EF919F9101
:1000E0008F910F900FBE0F901F90189588E28AB9DC
:1000F00086E880BD83E389B97894FFCFF894FFCF79
:04010000546573745B
:00000001FF
